{
  "_format": "hh-sol-artifact-1",
  "contractName": "StableCoinToken",
  "sourceName": "contracts/StableContract.sol",
  "abi": [
    {
      "inputs": [],
      "stateMutability": "nonpayable",
      "type": "constructor"
    },
    {
      "anonymous": false,
      "inputs": [
        {
          "indexed": true,
          "internalType": "address",
          "name": "owner",
          "type": "address"
        },
        {
          "indexed": true,
          "internalType": "address",
          "name": "spender",
          "type": "address"
        },
        {
          "indexed": false,
          "internalType": "uint256",
          "name": "value",
          "type": "uint256"
        }
      ],
      "name": "Approval",
      "type": "event"
    },
    {
      "anonymous": false,
      "inputs": [
        {
          "indexed": true,
          "internalType": "address",
          "name": "previousOwner",
          "type": "address"
        },
        {
          "indexed": true,
          "internalType": "address",
          "name": "newOwner",
          "type": "address"
        }
      ],
      "name": "OwnershipTransferred",
      "type": "event"
    },
    {
      "anonymous": false,
      "inputs": [
        {
          "indexed": true,
          "internalType": "address",
          "name": "from",
          "type": "address"
        },
        {
          "indexed": true,
          "internalType": "address",
          "name": "to",
          "type": "address"
        },
        {
          "indexed": false,
          "internalType": "uint256",
          "name": "value",
          "type": "uint256"
        }
      ],
      "name": "Transfer",
      "type": "event"
    },
    {
      "inputs": [
        {
          "internalType": "address",
          "name": "owner",
          "type": "address"
        },
        {
          "internalType": "address",
          "name": "spender",
          "type": "address"
        }
      ],
      "name": "allowance",
      "outputs": [
        {
          "internalType": "uint256",
          "name": "",
          "type": "uint256"
        }
      ],
      "stateMutability": "view",
      "type": "function"
    },
    {
      "inputs": [
        {
          "internalType": "address",
          "name": "spender",
          "type": "address"
        },
        {
          "internalType": "uint256",
          "name": "amount",
          "type": "uint256"
        }
      ],
      "name": "approve",
      "outputs": [
        {
          "internalType": "bool",
          "name": "",
          "type": "bool"
        }
      ],
      "stateMutability": "nonpayable",
      "type": "function"
    },
    {
      "inputs": [
        {
          "internalType": "address",
          "name": "account",
          "type": "address"
        }
      ],
      "name": "balanceOf",
      "outputs": [
        {
          "internalType": "uint256",
          "name": "",
          "type": "uint256"
        }
      ],
      "stateMutability": "view",
      "type": "function"
    },
    {
      "inputs": [
        {
          "internalType": "address",
          "name": "account",
          "type": "address"
        },
        {
          "internalType": "uint256",
          "name": "amount",
          "type": "uint256"
        }
      ],
      "name": "burn",
      "outputs": [],
      "stateMutability": "nonpayable",
      "type": "function"
    },
    {
      "inputs": [],
      "name": "decimals",
      "outputs": [
        {
          "internalType": "uint8",
          "name": "",
          "type": "uint8"
        }
      ],
      "stateMutability": "view",
      "type": "function"
    },
    {
      "inputs": [
        {
          "internalType": "address",
          "name": "spender",
          "type": "address"
        },
        {
          "internalType": "uint256",
          "name": "subtractedValue",
          "type": "uint256"
        }
      ],
      "name": "decreaseAllowance",
      "outputs": [
        {
          "internalType": "bool",
          "name": "",
          "type": "bool"
        }
      ],
      "stateMutability": "nonpayable",
      "type": "function"
    },
    {
      "inputs": [
        {
          "internalType": "address",
          "name": "spender",
          "type": "address"
        },
        {
          "internalType": "uint256",
          "name": "addedValue",
          "type": "uint256"
        }
      ],
      "name": "increaseAllowance",
      "outputs": [
        {
          "internalType": "bool",
          "name": "",
          "type": "bool"
        }
      ],
      "stateMutability": "nonpayable",
      "type": "function"
    },
    {
      "inputs": [
        {
          "internalType": "address",
          "name": "account",
          "type": "address"
        },
        {
          "internalType": "uint256",
          "name": "amount",
          "type": "uint256"
        }
      ],
      "name": "mint",
      "outputs": [],
      "stateMutability": "nonpayable",
      "type": "function"
    },
    {
      "inputs": [],
      "name": "name",
      "outputs": [
        {
          "internalType": "string",
          "name": "",
          "type": "string"
        }
      ],
      "stateMutability": "view",
      "type": "function"
    },
    {
      "inputs": [],
      "name": "owner",
      "outputs": [
        {
          "internalType": "address",
          "name": "",
          "type": "address"
        }
      ],
      "stateMutability": "view",
      "type": "function"
    },
    {
      "inputs": [],
      "name": "renounceOwnership",
      "outputs": [],
      "stateMutability": "nonpayable",
      "type": "function"
    },
    {
      "inputs": [],
      "name": "symbol",
      "outputs": [
        {
          "internalType": "string",
          "name": "",
          "type": "string"
        }
      ],
      "stateMutability": "view",
      "type": "function"
    },
    {
      "inputs": [],
      "name": "totalSupply",
      "outputs": [
        {
          "internalType": "uint256",
          "name": "",
          "type": "uint256"
        }
      ],
      "stateMutability": "view",
      "type": "function"
    },
    {
      "inputs": [
        {
          "internalType": "address",
          "name": "to",
          "type": "address"
        },
        {
          "internalType": "uint256",
          "name": "amount",
          "type": "uint256"
        }
      ],
      "name": "transfer",
      "outputs": [
        {
          "internalType": "bool",
          "name": "",
          "type": "bool"
        }
      ],
      "stateMutability": "nonpayable",
      "type": "function"
    },
    {
      "inputs": [
        {
          "internalType": "address",
          "name": "from",
          "type": "address"
        },
        {
          "internalType": "address",
          "name": "to",
          "type": "address"
        },
        {
          "internalType": "uint256",
          "name": "amount",
          "type": "uint256"
        }
      ],
      "name": "transferFrom",
      "outputs": [
        {
          "internalType": "bool",
          "name": "",
          "type": "bool"
        }
      ],
      "stateMutability": "nonpayable",
      "type": "function"
    },
    {
      "inputs": [
        {
          "internalType": "address",
          "name": "newOwner",
          "type": "address"
        }
      ],
      "name": "transferOwnership",
      "outputs": [],
      "stateMutability": "nonpayable",
      "type": "function"
    }
  ],
  "bytecode": "0x60806040523480156200001157600080fd5b506040518060400160405280601181526020017f46656c6978476f6f626572537461626c650000000000000000000000000000008152506040518060400160405280600381526020017f46475300000000000000000000000000000000000000000000000000000000008152506200009e62000092620000d860201b60201c565b620000e060201b60201c565b8160049080519060200190620000b6929190620001a4565b508060059080519060200190620000cf929190620001a4565b505050620002b9565b600033905090565b60008060009054906101000a900473ffffffffffffffffffffffffffffffffffffffff169050816000806101000a81548173ffffffffffffffffffffffffffffffffffffffff021916908373ffffffffffffffffffffffffffffffffffffffff1602179055508173ffffffffffffffffffffffffffffffffffffffff168173ffffffffffffffffffffffffffffffffffffffff167f8be0079c531659141344cd1fd0a4f28419497f9722a3daafe3b4186f6b6457e060405160405180910390a35050565b828054620001b29062000254565b90600052602060002090601f016020900481019282620001d6576000855562000222565b82601f10620001f157805160ff191683800117855562000222565b8280016001018555821562000222579182015b828111156200022157825182559160200191906001019062000204565b5b50905062000231919062000235565b5090565b5b808211156200025057600081600090555060010162000236565b5090565b600060028204905060018216806200026d57607f821691505b602082108114156200028457620002836200028a565b5b50919050565b7f4e487b7100000000000000000000000000000000000000000000000000000000600052602260045260246000fd5b611cd180620002c96000396000f3fe608060405234801561001057600080fd5b50600436106101005760003560e01c8063715018a611610097578063a457c2d711610066578063a457c2d71461029d578063a9059cbb146102cd578063dd62ed3e146102fd578063f2fde38b1461032d57610100565b8063715018a61461023b5780638da5cb5b1461024557806395d89b41146102635780639dc29fac1461028157610100565b8063313ce567116100d3578063313ce567146101a157806339509351146101bf57806340c10f19146101ef57806370a082311461020b57610100565b806306fdde0314610105578063095ea7b31461012357806318160ddd1461015357806323b872dd14610171575b600080fd5b61010d610349565b60405161011a9190611584565b60405180910390f35b61013d600480360381019061013891906112f9565b6103db565b60405161014a9190611569565b60405180910390f35b61015b6103fe565b6040516101689190611726565b60405180910390f35b61018b600480360381019061018691906112aa565b610408565b6040516101989190611569565b60405180910390f35b6101a9610437565b6040516101b69190611741565b60405180910390f35b6101d960048036038101906101d491906112f9565b610440565b6040516101e69190611569565b60405180910390f35b610209600480360381019061020491906112f9565b610477565b005b61022560048036038101906102209190611245565b610501565b6040516102329190611726565b60405180910390f35b61024361054a565b005b61024d6105d2565b60405161025a919061154e565b60405180910390f35b61026b6105fb565b6040516102789190611584565b60405180910390f35b61029b600480360381019061029691906112f9565b61068d565b005b6102b760048036038101906102b291906112f9565b610717565b6040516102c49190611569565b60405180910390f35b6102e760048036038101906102e291906112f9565b61078e565b6040516102f49190611569565b60405180910390f35b6103176004803603810190610312919061126e565b6107b1565b6040516103249190611726565b60405180910390f35b61034760048036038101906103429190611245565b610838565b005b6060600480546103589061188a565b80601f01602080910402602001604051908101604052809291908181526020018280546103849061188a565b80156103d15780601f106103a6576101008083540402835291602001916103d1565b820191906000526020600020905b8154815290600101906020018083116103b457829003601f168201915b5050505050905090565b6000806103e6610930565b90506103f3818585610938565b600191505092915050565b6000600354905090565b600080610413610930565b9050610420858285610b03565b61042b858585610b8f565b60019150509392505050565b60006012905090565b60008061044b610930565b905061046c81858561045d85896107b1565b6104679190611778565b610938565b600191505092915050565b61047f610930565b73ffffffffffffffffffffffffffffffffffffffff1661049d6105d2565b73ffffffffffffffffffffffffffffffffffffffff16146104f3576040517f08c379a00000000000000000000000000000000000000000000000000000000081526004016104ea90611666565b60405180910390fd5b6104fd8282610e13565b5050565b6000600160008373ffffffffffffffffffffffffffffffffffffffff1673ffffffffffffffffffffffffffffffffffffffff168152602001908152602001600020549050919050565b610552610930565b73ffffffffffffffffffffffffffffffffffffffff166105706105d2565b73ffffffffffffffffffffffffffffffffffffffff16146105c6576040517f08c379a00000000000000000000000000000000000000000000000000000000081526004016105bd90611666565b60405180910390fd5b6105d06000610f74565b565b60008060009054906101000a900473ffffffffffffffffffffffffffffffffffffffff16905090565b60606005805461060a9061188a565b80601f01602080910402602001604051908101604052809291908181526020018280546106369061188a565b80156106835780601f1061065857610100808354040283529160200191610683565b820191906000526020600020905b81548152906001019060200180831161066657829003601f168201915b5050505050905090565b610695610930565b73ffffffffffffffffffffffffffffffffffffffff166106b36105d2565b73ffffffffffffffffffffffffffffffffffffffff1614610709576040517f08c379a000000000000000000000000000000000000000000000000000000000815260040161070090611666565b60405180910390fd5b6107138282611038565b5050565b600080610722610930565b9050600061073082866107b1565b905083811015610775576040517f08c379a000000000000000000000000000000000000000000000000000000000815260040161076c906116e6565b60405180910390fd5b6107828286868403610938565b60019250505092915050565b600080610799610930565b90506107a6818585610b8f565b600191505092915050565b6000600260008473ffffffffffffffffffffffffffffffffffffffff1673ffffffffffffffffffffffffffffffffffffffff16815260200190815260200160002060008373ffffffffffffffffffffffffffffffffffffffff1673ffffffffffffffffffffffffffffffffffffffff16815260200190815260200160002054905092915050565b610840610930565b73ffffffffffffffffffffffffffffffffffffffff1661085e6105d2565b73ffffffffffffffffffffffffffffffffffffffff16146108b4576040517f08c379a00000000000000000000000000000000000000000000000000000000081526004016108ab90611666565b60405180910390fd5b600073ffffffffffffffffffffffffffffffffffffffff168173ffffffffffffffffffffffffffffffffffffffff161415610924576040517f08c379a000000000000000000000000000000000000000000000000000000000815260040161091b906115e6565b60405180910390fd5b61092d81610f74565b50565b600033905090565b600073ffffffffffffffffffffffffffffffffffffffff168373ffffffffffffffffffffffffffffffffffffffff1614156109a8576040517f08c379a000000000000000000000000000000000000000000000000000000000815260040161099f906116c6565b60405180910390fd5b600073ffffffffffffffffffffffffffffffffffffffff168273ffffffffffffffffffffffffffffffffffffffff161415610a18576040517f08c379a0000000000000000000000000000000000000000000000000000000008152600401610a0f90611606565b60405180910390fd5b80600260008573ffffffffffffffffffffffffffffffffffffffff1673ffffffffffffffffffffffffffffffffffffffff16815260200190815260200160002060008473ffffffffffffffffffffffffffffffffffffffff1673ffffffffffffffffffffffffffffffffffffffff168152602001908152602001600020819055508173ffffffffffffffffffffffffffffffffffffffff168373ffffffffffffffffffffffffffffffffffffffff167f8c5be1e5ebec7d5bd14f71427d1e84f3dd0314c0f7b2291e5b200ac8c7c3b92583604051610af69190611726565b60405180910390a3505050565b6000610b0f84846107b1565b90507fffffffffffffffffffffffffffffffffffffffffffffffffffffffffffffffff8114610b895781811015610b7b576040517f08c379a0000000000000000000000000000000000000000000000000000000008152600401610b7290611626565b60405180910390fd5b610b888484848403610938565b5b50505050565b600073ffffffffffffffffffffffffffffffffffffffff168373ffffffffffffffffffffffffffffffffffffffff161415610bff576040517f08c379a0000000000000000000000000000000000000000000000000000000008152600401610bf6906116a6565b60405180910390fd5b600073ffffffffffffffffffffffffffffffffffffffff168273ffffffffffffffffffffffffffffffffffffffff161415610c6f576040517f08c379a0000000000000000000000000000000000000000000000000000000008152600401610c66906115a6565b60405180910390fd5b610c7a838383611211565b6000600160008573ffffffffffffffffffffffffffffffffffffffff1673ffffffffffffffffffffffffffffffffffffffff16815260200190815260200160002054905081811015610d01576040517f08c379a0000000000000000000000000000000000000000000000000000000008152600401610cf890611646565b60405180910390fd5b818103600160008673ffffffffffffffffffffffffffffffffffffffff1673ffffffffffffffffffffffffffffffffffffffff1681526020019081526020016000208190555081600160008573ffffffffffffffffffffffffffffffffffffffff1673ffffffffffffffffffffffffffffffffffffffff1681526020019081526020016000206000828254610d969190611778565b925050819055508273ffffffffffffffffffffffffffffffffffffffff168473ffffffffffffffffffffffffffffffffffffffff167fddf252ad1be2c89b69c2b068fc378daa952ba7f163c4a11628f55a4df523b3ef84604051610dfa9190611726565b60405180910390a3610e0d848484611216565b50505050565b600073ffffffffffffffffffffffffffffffffffffffff168273ffffffffffffffffffffffffffffffffffffffff161415610e83576040517f08c379a0000000000000000000000000000000000000000000000000000000008152600401610e7a90611706565b60405180910390fd5b610e8f60008383611211565b8060036000828254610ea19190611778565b9250508190555080600160008473ffffffffffffffffffffffffffffffffffffffff1673ffffffffffffffffffffffffffffffffffffffff1681526020019081526020016000206000828254610ef79190611778565b925050819055508173ffffffffffffffffffffffffffffffffffffffff16600073ffffffffffffffffffffffffffffffffffffffff167fddf252ad1be2c89b69c2b068fc378daa952ba7f163c4a11628f55a4df523b3ef83604051610f5c9190611726565b60405180910390a3610f7060008383611216565b5050565b60008060009054906101000a900473ffffffffffffffffffffffffffffffffffffffff169050816000806101000a81548173ffffffffffffffffffffffffffffffffffffffff021916908373ffffffffffffffffffffffffffffffffffffffff1602179055508173ffffffffffffffffffffffffffffffffffffffff168173ffffffffffffffffffffffffffffffffffffffff167f8be0079c531659141344cd1fd0a4f28419497f9722a3daafe3b4186f6b6457e060405160405180910390a35050565b600073ffffffffffffffffffffffffffffffffffffffff168273ffffffffffffffffffffffffffffffffffffffff1614156110a8576040517f08c379a000000000000000000000000000000000000000000000000000000000815260040161109f90611686565b60405180910390fd5b6110b482600083611211565b6000600160008473ffffffffffffffffffffffffffffffffffffffff1673ffffffffffffffffffffffffffffffffffffffff1681526020019081526020016000205490508181101561113b576040517f08c379a0000000000000000000000000000000000000000000000000000000008152600401611132906115c6565b60405180910390fd5b818103600160008573ffffffffffffffffffffffffffffffffffffffff1673ffffffffffffffffffffffffffffffffffffffff16815260200190815260200160002081905550816003600082825461119391906117ce565b92505081905550600073ffffffffffffffffffffffffffffffffffffffff168373ffffffffffffffffffffffffffffffffffffffff167fddf252ad1be2c89b69c2b068fc378daa952ba7f163c4a11628f55a4df523b3ef846040516111f89190611726565b60405180910390a361120c83600084611216565b505050565b505050565b505050565b60008135905061122a81611c6d565b92915050565b60008135905061123f81611c84565b92915050565b60006020828403121561125757600080fd5b60006112658482850161121b565b91505092915050565b6000806040838503121561128157600080fd5b600061128f8582860161121b565b92505060206112a08582860161121b565b9150509250929050565b6000806000606084860312156112bf57600080fd5b60006112cd8682870161121b565b93505060206112de8682870161121b565b92505060406112ef86828701611230565b9150509250925092565b6000806040838503121561130c57600080fd5b600061131a8582860161121b565b925050602061132b85828601611230565b9150509250929050565b61133e81611802565b82525050565b61134d81611814565b82525050565b600061135e8261175c565b6113688185611767565b9350611378818560208601611857565b6113818161191a565b840191505092915050565b6000611399602383611767565b91506113a48261192b565b604082019050919050565b60006113bc602283611767565b91506113c78261197a565b604082019050919050565b60006113df602683611767565b91506113ea826119c9565b604082019050919050565b6000611402602283611767565b915061140d82611a18565b604082019050919050565b6000611425601d83611767565b915061143082611a67565b602082019050919050565b6000611448602683611767565b915061145382611a90565b604082019050919050565b600061146b602083611767565b915061147682611adf565b602082019050919050565b600061148e602183611767565b915061149982611b08565b604082019050919050565b60006114b1602583611767565b91506114bc82611b57565b604082019050919050565b60006114d4602483611767565b91506114df82611ba6565b604082019050919050565b60006114f7602583611767565b915061150282611bf5565b604082019050919050565b600061151a601f83611767565b915061152582611c44565b602082019050919050565b61153981611840565b82525050565b6115488161184a565b82525050565b60006020820190506115636000830184611335565b92915050565b600060208201905061157e6000830184611344565b92915050565b6000602082019050818103600083015261159e8184611353565b905092915050565b600060208201905081810360008301526115bf8161138c565b9050919050565b600060208201905081810360008301526115df816113af565b9050919050565b600060208201905081810360008301526115ff816113d2565b9050919050565b6000602082019050818103600083015261161f816113f5565b9050919050565b6000602082019050818103600083015261163f81611418565b9050919050565b6000602082019050818103600083015261165f8161143b565b9050919050565b6000602082019050818103600083015261167f8161145e565b9050919050565b6000602082019050818103600083015261169f81611481565b9050919050565b600060208201905081810360008301526116bf816114a4565b9050919050565b600060208201905081810360008301526116df816114c7565b9050919050565b600060208201905081810360008301526116ff816114ea565b9050919050565b6000602082019050818103600083015261171f8161150d565b9050919050565b600060208201905061173b6000830184611530565b92915050565b6000602082019050611756600083018461153f565b92915050565b600081519050919050565b600082825260208201905092915050565b600061178382611840565b915061178e83611840565b9250827fffffffffffffffffffffffffffffffffffffffffffffffffffffffffffffffff038211156117c3576117c26118bc565b5b828201905092915050565b60006117d982611840565b91506117e483611840565b9250828210156117f7576117f66118bc565b5b828203905092915050565b600061180d82611820565b9050919050565b60008115159050919050565b600073ffffffffffffffffffffffffffffffffffffffff82169050919050565b6000819050919050565b600060ff82169050919050565b60005b8381101561187557808201518184015260208101905061185a565b83811115611884576000848401525b50505050565b600060028204905060018216806118a257607f821691505b602082108114156118b6576118b56118eb565b5b50919050565b7f4e487b7100000000000000000000000000000000000000000000000000000000600052601160045260246000fd5b7f4e487b7100000000000000000000000000000000000000000000000000000000600052602260045260246000fd5b6000601f19601f8301169050919050565b7f45524332303a207472616e7366657220746f20746865207a65726f206164647260008201527f6573730000000000000000000000000000000000000000000000000000000000602082015250565b7f45524332303a206275726e20616d6f756e7420657863656564732062616c616e60008201527f6365000000000000000000000000000000000000000000000000000000000000602082015250565b7f4f776e61626c653a206e6577206f776e657220697320746865207a65726f206160008201527f6464726573730000000000000000000000000000000000000000000000000000602082015250565b7f45524332303a20617070726f766520746f20746865207a65726f20616464726560008201527f7373000000000000000000000000000000000000000000000000000000000000602082015250565b7f45524332303a20696e73756666696369656e7420616c6c6f77616e6365000000600082015250565b7f45524332303a207472616e7366657220616d6f756e742065786365656473206260008201527f616c616e63650000000000000000000000000000000000000000000000000000602082015250565b7f4f776e61626c653a2063616c6c6572206973206e6f7420746865206f776e6572600082015250565b7f45524332303a206275726e2066726f6d20746865207a65726f2061646472657360008201527f7300000000000000000000000000000000000000000000000000000000000000602082015250565b7f45524332303a207472616e736665722066726f6d20746865207a65726f20616460008201527f6472657373000000000000000000000000000000000000000000000000000000602082015250565b7f45524332303a20617070726f76652066726f6d20746865207a65726f2061646460008201527f7265737300000000000000000000000000000000000000000000000000000000602082015250565b7f45524332303a2064656372656173656420616c6c6f77616e63652062656c6f7760008201527f207a65726f000000000000000000000000000000000000000000000000000000602082015250565b7f45524332303a206d696e7420746f20746865207a65726f206164647265737300600082015250565b611c7681611802565b8114611c8157600080fd5b50565b611c8d81611840565b8114611c9857600080fd5b5056fea2646970667358221220b9522de419aeb48f0c276daebfd4632dfebde388de1f8ed59a6f231e9fa20d1964736f6c63430008040033",
  "linkReferences": {},
  "deployedLinkReferences": {}
}