{
  "_format": "hh-sol-artifact-1",
  "contractName": "Vault",
  "sourceName": "contracts/Vault.sol",
  "abi": [
    {
      "inputs": [
        {
          "internalType": "contract PriceConsumerV3",
          "name": "_priceConsumerV3",
          "type": "address"
        },
        {
          "internalType": "contract StableCoinToken",
          "name": "_stableCoinToken",
          "type": "address"
        }
      ],
      "stateMutability": "nonpayable",
      "type": "constructor"
    },
    {
      "anonymous": false,
      "inputs": [
        {
          "indexed": true,
          "internalType": "address",
          "name": "previousOwner",
          "type": "address"
        },
        {
          "indexed": true,
          "internalType": "address",
          "name": "newOwner",
          "type": "address"
        }
      ],
      "name": "OwnershipTransferred",
      "type": "event"
    },
    {
      "anonymous": false,
      "inputs": [
        {
          "indexed": false,
          "internalType": "uint256",
          "name": "depositAmount",
          "type": "uint256"
        },
        {
          "indexed": false,
          "internalType": "uint256",
          "name": "amountToMint",
          "type": "uint256"
        }
      ],
      "name": "depositEvent",
      "type": "event"
    },
    {
      "anonymous": false,
      "inputs": [
        {
          "indexed": false,
          "internalType": "uint256",
          "name": "amountToWithdraw",
          "type": "uint256"
        },
        {
          "indexed": false,
          "internalType": "uint256",
          "name": "repaymentAmount",
          "type": "uint256"
        }
      ],
      "name": "withdrawEvent",
      "type": "event"
    },
    {
      "inputs": [
        {
          "internalType": "uint256",
          "name": "_depositAmount",
          "type": "uint256"
        }
      ],
      "name": "deposit",
      "outputs": [],
      "stateMutability": "payable",
      "type": "function"
    },
    {
      "inputs": [
        {
          "internalType": "uint256",
          "name": "_repaymentAmount",
          "type": "uint256"
        }
      ],
      "name": "estimateCollateralAmount",
      "outputs": [
        {
          "internalType": "uint256",
          "name": "collateralAmount",
          "type": "uint256"
        }
      ],
      "stateMutability": "view",
      "type": "function"
    },
    {
      "inputs": [
        {
          "internalType": "uint256",
          "name": "_depositAmount",
          "type": "uint256"
        }
      ],
      "name": "estimateTokenAmount",
      "outputs": [
        {
          "internalType": "uint256",
          "name": "tokenAmount",
          "type": "uint256"
        }
      ],
      "stateMutability": "view",
      "type": "function"
    },
    {
      "inputs": [],
      "name": "getEthUSDPrice",
      "outputs": [
        {
          "internalType": "uint256",
          "name": "",
          "type": "uint256"
        }
      ],
      "stateMutability": "view",
      "type": "function"
    },
    {
      "inputs": [
        {
          "internalType": "address",
          "name": "userAddress",
          "type": "address"
        }
      ],
      "name": "getVault",
      "outputs": [
        {
          "components": [
            {
              "internalType": "uint256",
              "name": "debtAmount",
              "type": "uint256"
            },
            {
              "internalType": "uint256",
              "name": "collateralAmount",
              "type": "uint256"
            }
          ],
          "internalType": "struct Vault.VaultStruct",
          "name": "",
          "type": "tuple"
        }
      ],
      "stateMutability": "view",
      "type": "function"
    },
    {
      "inputs": [],
      "name": "owner",
      "outputs": [
        {
          "internalType": "address",
          "name": "",
          "type": "address"
        }
      ],
      "stateMutability": "view",
      "type": "function"
    },
    {
      "inputs": [],
      "name": "renounceOwnership",
      "outputs": [],
      "stateMutability": "nonpayable",
      "type": "function"
    },
    {
      "inputs": [],
      "name": "s_token",
      "outputs": [
        {
          "internalType": "contract StableCoinToken",
          "name": "",
          "type": "address"
        }
      ],
      "stateMutability": "view",
      "type": "function"
    },
    {
      "inputs": [
        {
          "internalType": "address",
          "name": "newOwner",
          "type": "address"
        }
      ],
      "name": "transferOwnership",
      "outputs": [],
      "stateMutability": "nonpayable",
      "type": "function"
    },
    {
      "inputs": [
        {
          "internalType": "address",
          "name": "",
          "type": "address"
        }
      ],
      "name": "vaults",
      "outputs": [
        {
          "internalType": "uint256",
          "name": "debtAmount",
          "type": "uint256"
        },
        {
          "internalType": "uint256",
          "name": "collateralAmount",
          "type": "uint256"
        }
      ],
      "stateMutability": "view",
      "type": "function"
    },
    {
      "inputs": [
        {
          "internalType": "uint256",
          "name": "_repaymentAmount",
          "type": "uint256"
        }
      ],
      "name": "withdraw",
      "outputs": [],
      "stateMutability": "payable",
      "type": "function"
    }
  ],
  "bytecode": "0x60806040523480156200001157600080fd5b5060405162001609380380620016098339818101604052810190620000379190620001db565b620000576200004b620000e160201b60201c565b620000e960201b60201c565b80600160006101000a81548173ffffffffffffffffffffffffffffffffffffffff021916908373ffffffffffffffffffffffffffffffffffffffff16021790555081600260006101000a81548173ffffffffffffffffffffffffffffffffffffffff021916908373ffffffffffffffffffffffffffffffffffffffff1602179055505050620002ac565b600033905090565b60008060009054906101000a900473ffffffffffffffffffffffffffffffffffffffff169050816000806101000a81548173ffffffffffffffffffffffffffffffffffffffff021916908373ffffffffffffffffffffffffffffffffffffffff1602179055508173ffffffffffffffffffffffffffffffffffffffff168173ffffffffffffffffffffffffffffffffffffffff167f8be0079c531659141344cd1fd0a4f28419497f9722a3daafe3b4186f6b6457e060405160405180910390a35050565b600081519050620001be8162000278565b92915050565b600081519050620001d58162000292565b92915050565b60008060408385031215620001ef57600080fd5b6000620001ff85828601620001ad565b92505060206200021285828601620001c4565b9150509250929050565b6000620002298262000258565b9050919050565b60006200023d826200021c565b9050919050565b600062000251826200021c565b9050919050565b600073ffffffffffffffffffffffffffffffffffffffff82169050919050565b620002838162000230565b81146200028f57600080fd5b50565b6200029d8162000244565b8114620002a957600080fd5b50565b61134d80620002bc6000396000f3fe60806040526004361061009c5760003560e01c8063715018a611610064578063715018a61461019f5780638da5cb5b146101b6578063a622ee7c146101e1578063b6b55f251461021f578063d84549d71461023b578063f2fde38b146102665761009c565b80630eb9af38146100a15780631b05ab79146100de5780632e1a7d4d1461011b57806356bfdaf51461013757806365156b3114610174575b600080fd5b3480156100ad57600080fd5b506100c860048036038101906100c39190610c89565b61028f565b6040516100d59190610f6f565b60405180910390f35b3480156100ea57600080fd5b5061010560048036038101906101009190610d04565b6102fc565b6040516101129190610f8a565b60405180910390f35b61013560048036038101906101309190610d04565b610318565b005b34801561014357600080fd5b5061015e60048036038101906101599190610d04565b610687565b60405161016b9190610f8a565b60405180910390f35b34801561018057600080fd5b506101896106a3565b6040516101969190610eb4565b60405180910390f35b3480156101ab57600080fd5b506101b46106c9565b005b3480156101c257600080fd5b506101cb610751565b6040516101d89190610e70565b60405180910390f35b3480156101ed57600080fd5b5061020860048036038101906102039190610c89565b61077a565b604051610216929190610fa5565b60405180910390f35b61023960048036038101906102349190610d04565b61079e565b005b34801561024757600080fd5b50610250610996565b60405161025d9190610f8a565b60405180910390f35b34801561027257600080fd5b5061028d60048036038101906102889190610c89565b610a42565b005b610297610c06565b600360008373ffffffffffffffffffffffffffffffffffffffff1673ffffffffffffffffffffffffffffffffffffffff168152602001908152602001600020604051806040016040529081600082015481526020016001820154815250509050919050565b6000610306610996565b826103119190611066565b9050919050565b600360003373ffffffffffffffffffffffffffffffffffffffff1673ffffffffffffffffffffffffffffffffffffffff1681526020019081526020016000206000015481111561039d576040517f08c379a000000000000000000000000000000000000000000000000000000000815260040161039490610ecf565b60405180910390fd5b80600160009054906101000a900473ffffffffffffffffffffffffffffffffffffffff1673ffffffffffffffffffffffffffffffffffffffff166370a08231336040518263ffffffff1660e01b81526004016103f99190610e70565b60206040518083038186803b15801561041157600080fd5b505afa158015610425573d6000803e3d6000fd5b505050506040513d601f19601f820116820180604052508101906104499190610d2d565b101561048a576040517f08c379a000000000000000000000000000000000000000000000000000000000815260040161048190610f0f565b60405180910390fd5b6000610494610996565b8261049f9190611035565b9050600160009054906101000a900473ffffffffffffffffffffffffffffffffffffffff1673ffffffffffffffffffffffffffffffffffffffff16639dc29fac33846040518363ffffffff1660e01b81526004016104fe929190610e8b565b602060405180830381600087803b15801561051857600080fd5b505af115801561052c573d6000803e3d6000fd5b505050506040513d601f19601f820116820180604052508101906105509190610cb2565b5080600360003373ffffffffffffffffffffffffffffffffffffffff1673ffffffffffffffffffffffffffffffffffffffff16815260200190815260200160002060010160008282546105a391906110c0565b9250508190555081600360003373ffffffffffffffffffffffffffffffffffffffff1673ffffffffffffffffffffffffffffffffffffffff16815260200190815260200160002060000160008282546105fc91906110c0565b925050819055503373ffffffffffffffffffffffffffffffffffffffff166108fc829081150290604051600060405180830381858888f19350505050158015610649573d6000803e3d6000fd5b507f891f5fcb684137d1c72ec3ae0ee3fc08e47d013d6f44645f2abd3486ff16cfb9818360405161067b929190610fa5565b60405180910390a15050565b6000610691610996565b8261069c9190611035565b9050919050565b600160009054906101000a900473ffffffffffffffffffffffffffffffffffffffff1681565b6106d1610b3a565b73ffffffffffffffffffffffffffffffffffffffff166106ef610751565b73ffffffffffffffffffffffffffffffffffffffff1614610745576040517f08c379a000000000000000000000000000000000000000000000000000000000815260040161073c90610f4f565b60405180910390fd5b61074f6000610b42565b565b60008060009054906101000a900473ffffffffffffffffffffffffffffffffffffffff16905090565b60036020528060005260406000206000915090508060000154908060010154905082565b3481146107e0576040517f08c379a00000000000000000000000000000000000000000000000000000000081526004016107d790610f2f565b60405180910390fd5b60006107ea610996565b826107f59190611066565b9050600160009054906101000a900473ffffffffffffffffffffffffffffffffffffffff1673ffffffffffffffffffffffffffffffffffffffff166340c10f1933836040518363ffffffff1660e01b8152600401610854929190610e8b565b602060405180830381600087803b15801561086e57600080fd5b505af1158015610882573d6000803e3d6000fd5b505050506040513d601f19601f820116820180604052508101906108a69190610cb2565b5081600360003373ffffffffffffffffffffffffffffffffffffffff1673ffffffffffffffffffffffffffffffffffffffff16815260200190815260200160002060010160008282546108f99190610fdf565b9250508190555080600360003373ffffffffffffffffffffffffffffffffffffffff1673ffffffffffffffffffffffffffffffffffffffff16815260200190815260200160002060000160008282546109529190610fdf565b925050819055507f9acf500f2a8081ffa0897a62fda087ee540f662d8cda5c32fe550fbf38ef51a2828260405161098a929190610fa5565b60405180910390a15050565b600080600260009054906101000a900473ffffffffffffffffffffffffffffffffffffffff1673ffffffffffffffffffffffffffffffffffffffff16638e15f4736040518163ffffffff1660e01b815260040160206040518083038186803b158015610a0157600080fd5b505afa158015610a15573d6000803e3d6000fd5b505050506040513d601f19601f82011682018060405250810190610a399190610cdb565b90508091505090565b610a4a610b3a565b73ffffffffffffffffffffffffffffffffffffffff16610a68610751565b73ffffffffffffffffffffffffffffffffffffffff1614610abe576040517f08c379a0000000000000000000000000000000000000000000000000000000008152600401610ab590610f4f565b60405180910390fd5b600073ffffffffffffffffffffffffffffffffffffffff168173ffffffffffffffffffffffffffffffffffffffff161415610b2e576040517f08c379a0000000000000000000000000000000000000000000000000000000008152600401610b2590610eef565b60405180910390fd5b610b3781610b42565b50565b600033905090565b60008060009054906101000a900473ffffffffffffffffffffffffffffffffffffffff169050816000806101000a81548173ffffffffffffffffffffffffffffffffffffffff021916908373ffffffffffffffffffffffffffffffffffffffff1602179055508173ffffffffffffffffffffffffffffffffffffffff168173ffffffffffffffffffffffffffffffffffffffff167f8be0079c531659141344cd1fd0a4f28419497f9722a3daafe3b4186f6b6457e060405160405180910390a35050565b604051806040016040528060008152602001600081525090565b600081359050610c2f816112bb565b92915050565b600081519050610c44816112d2565b92915050565b600081519050610c59816112e9565b92915050565b600081359050610c6e81611300565b92915050565b600081519050610c8381611300565b92915050565b600060208284031215610c9b57600080fd5b6000610ca984828501610c20565b91505092915050565b600060208284031215610cc457600080fd5b6000610cd284828501610c35565b91505092915050565b600060208284031215610ced57600080fd5b6000610cfb84828501610c4a565b91505092915050565b600060208284031215610d1657600080fd5b6000610d2484828501610c5f565b91505092915050565b600060208284031215610d3f57600080fd5b6000610d4d84828501610c74565b91505092915050565b610d5f816110f4565b82525050565b610d6e81611146565b82525050565b6000610d81601783610fce565b9150610d8c826111c8565b602082019050919050565b6000610da4602683610fce565b9150610daf826111f1565b604082019050919050565b6000610dc7601c83610fce565b9150610dd282611240565b602082019050919050565b6000610dea601483610fce565b9150610df582611269565b602082019050919050565b6000610e0d602083610fce565b9150610e1882611292565b602082019050919050565b604082016000820151610e396000850182610e52565b506020820151610e4c6020850182610e52565b50505050565b610e5b8161113c565b82525050565b610e6a8161113c565b82525050565b6000602082019050610e856000830184610d56565b92915050565b6000604082019050610ea06000830185610d56565b610ead6020830184610e61565b9392505050565b6000602082019050610ec96000830184610d65565b92915050565b60006020820190508181036000830152610ee881610d74565b9050919050565b60006020820190508181036000830152610f0881610d97565b9050919050565b60006020820190508181036000830152610f2881610dba565b9050919050565b60006020820190508181036000830152610f4881610ddd565b9050919050565b60006020820190508181036000830152610f6881610e00565b9050919050565b6000604082019050610f846000830184610e23565b92915050565b6000602082019050610f9f6000830184610e61565b92915050565b6000604082019050610fba6000830185610e61565b610fc76020830184610e61565b9392505050565b600082825260208201905092915050565b6000610fea8261113c565b9150610ff58361113c565b9250827fffffffffffffffffffffffffffffffffffffffffffffffffffffffffffffffff0382111561102a5761102961116a565b5b828201905092915050565b60006110408261113c565b915061104b8361113c565b92508261105b5761105a611199565b5b828204905092915050565b60006110718261113c565b915061107c8361113c565b9250817fffffffffffffffffffffffffffffffffffffffffffffffffffffffffffffffff04831182151516156110b5576110b461116a565b5b828202905092915050565b60006110cb8261113c565b91506110d68361113c565b9250828210156110e9576110e861116a565b5b828203905092915050565b60006110ff8261111c565b9050919050565b60008115159050919050565b6000819050919050565b600073ffffffffffffffffffffffffffffffffffffffff82169050919050565b6000819050919050565b600061115182611158565b9050919050565b60006111638261111c565b9050919050565b7f4e487b7100000000000000000000000000000000000000000000000000000000600052601160045260246000fd5b7f4e487b7100000000000000000000000000000000000000000000000000000000600052601260045260246000fd5b7f7769746864726177206c696d6974206578636565646564000000000000000000600082015250565b7f4f776e61626c653a206e6577206f776e657220697320746865207a65726f206160008201527f6464726573730000000000000000000000000000000000000000000000000000602082015250565b7f6e6f7420656e6f75676820746f6b656e7320696e2062616c616e636500000000600082015250565b7f696e636f72726563742045544820616d6f756e74000000000000000000000000600082015250565b7f4f776e61626c653a2063616c6c6572206973206e6f7420746865206f776e6572600082015250565b6112c4816110f4565b81146112cf57600080fd5b50565b6112db81611106565b81146112e657600080fd5b50565b6112f281611112565b81146112fd57600080fd5b50565b6113098161113c565b811461131457600080fd5b5056fea2646970667358221220283151e27c77da17530d6bb2da1bc4a98f9c7ab5923c85e04a5030cc0a2a92d164736f6c63430008040033",
  "linkReferences": {},
  "deployedLinkReferences": {}
}